{
  "contractName": "Election",
  "abi": [
    {
      "inputs": [
        {
          "internalType": "address",
          "name": "_voterAuthAddress",
          "type": "address"
        }
      ],
      "payable": false,
      "stateMutability": "nonpayable",
      "type": "constructor"
    },
    {
      "anonymous": false,
      "inputs": [
        {
          "indexed": false,
          "internalType": "uint256",
          "name": "candidateId",
          "type": "uint256"
        },
        {
          "indexed": false,
          "internalType": "string",
          "name": "firstName",
          "type": "string"
        },
        {
          "indexed": false,
          "internalType": "string",
          "name": "lastName",
          "type": "string"
        }
      ],
      "name": "CandidateAdded",
      "type": "event"
    },
    {
      "anonymous": false,
      "inputs": [
        {
          "indexed": false,
          "internalType": "uint256",
          "name": "endTime",
          "type": "uint256"
        }
      ],
      "name": "ElectionEnded",
      "type": "event"
    },
    {
      "anonymous": false,
      "inputs": [
        {
          "indexed": false,
          "internalType": "uint256",
          "name": "startTime",
          "type": "uint256"
        }
      ],
      "name": "ElectionStarted",
      "type": "event"
    },
    {
      "anonymous": false,
      "inputs": [
        {
          "indexed": false,
          "internalType": "uint256",
          "name": "indexed_candidateId",
          "type": "uint256"
        }
      ],
      "name": "votedEvent",
      "type": "event"
    },
    {
      "constant": true,
      "inputs": [
        {
          "internalType": "uint256",
          "name": "",
          "type": "uint256"
        }
      ],
      "name": "candidates",
      "outputs": [
        {
          "internalType": "uint256",
          "name": "id",
          "type": "uint256"
        },
        {
          "internalType": "string",
          "name": "CfirstName",
          "type": "string"
        },
        {
          "internalType": "string",
          "name": "ClastName",
          "type": "string"
        },
        {
          "internalType": "string",
          "name": "CidNumber",
          "type": "string"
        },
        {
          "internalType": "uint256",
          "name": "voteCount",
          "type": "uint256"
        }
      ],
      "payable": false,
      "stateMutability": "view",
      "type": "function"
    },
    {
      "constant": true,
      "inputs": [],
      "name": "candidatesCount",
      "outputs": [
        {
          "internalType": "uint256",
          "name": "",
          "type": "uint256"
        }
      ],
      "payable": false,
      "stateMutability": "view",
      "type": "function"
    },
    {
      "constant": true,
      "inputs": [],
      "name": "electionEnded",
      "outputs": [
        {
          "internalType": "bool",
          "name": "",
          "type": "bool"
        }
      ],
      "payable": false,
      "stateMutability": "view",
      "type": "function"
    },
    {
      "constant": true,
      "inputs": [],
      "name": "electionStarted",
      "outputs": [
        {
          "internalType": "bool",
          "name": "",
          "type": "bool"
        }
      ],
      "payable": false,
      "stateMutability": "view",
      "type": "function"
    },
    {
      "constant": true,
      "inputs": [],
      "name": "endTime",
      "outputs": [
        {
          "internalType": "uint256",
          "name": "",
          "type": "uint256"
        }
      ],
      "payable": false,
      "stateMutability": "view",
      "type": "function"
    },
    {
      "constant": true,
      "inputs": [],
      "name": "manager",
      "outputs": [
        {
          "internalType": "address",
          "name": "",
          "type": "address"
        }
      ],
      "payable": false,
      "stateMutability": "view",
      "type": "function"
    },
    {
      "constant": true,
      "inputs": [],
      "name": "startTime",
      "outputs": [
        {
          "internalType": "uint256",
          "name": "",
          "type": "uint256"
        }
      ],
      "payable": false,
      "stateMutability": "view",
      "type": "function"
    },
    {
      "constant": true,
      "inputs": [
        {
          "internalType": "uint256",
          "name": "",
          "type": "uint256"
        }
      ],
      "name": "users",
      "outputs": [
        {
          "internalType": "string",
          "name": "firstName",
          "type": "string"
        },
        {
          "internalType": "string",
          "name": "lastName",
          "type": "string"
        },
        {
          "internalType": "string",
          "name": "idNumber",
          "type": "string"
        },
        {
          "internalType": "string",
          "name": "email",
          "type": "string"
        },
        {
          "internalType": "bytes32",
          "name": "passwordHash",
          "type": "bytes32"
        },
        {
          "internalType": "address",
          "name": "add",
          "type": "address"
        }
      ],
      "payable": false,
      "stateMutability": "view",
      "type": "function"
    },
    {
      "constant": true,
      "inputs": [],
      "name": "usersCount",
      "outputs": [
        {
          "internalType": "uint256",
          "name": "",
          "type": "uint256"
        }
      ],
      "payable": false,
      "stateMutability": "view",
      "type": "function"
    },
    {
      "constant": true,
      "inputs": [],
      "name": "voterAuth",
      "outputs": [
        {
          "internalType": "contract VoterAuth",
          "name": "",
          "type": "address"
        }
      ],
      "payable": false,
      "stateMutability": "view",
      "type": "function"
    },
    {
      "constant": true,
      "inputs": [
        {
          "internalType": "address",
          "name": "",
          "type": "address"
        }
      ],
      "name": "voters",
      "outputs": [
        {
          "internalType": "bool",
          "name": "",
          "type": "bool"
        }
      ],
      "payable": false,
      "stateMutability": "view",
      "type": "function"
    },
    {
      "constant": false,
      "inputs": [
        {
          "internalType": "string",
          "name": "_CfirstName",
          "type": "string"
        },
        {
          "internalType": "string",
          "name": "_ClastName",
          "type": "string"
        },
        {
          "internalType": "string",
          "name": "_CidNumber",
          "type": "string"
        }
      ],
      "name": "addCandidate",
      "outputs": [],
      "payable": false,
      "stateMutability": "nonpayable",
      "type": "function"
    },
    {
      "constant": false,
      "inputs": [
        {
          "internalType": "uint256",
          "name": "_candidateId",
          "type": "uint256"
        }
      ],
      "name": "vote",
      "outputs": [],
      "payable": false,
      "stateMutability": "nonpayable",
      "type": "function"
    },
    {
      "constant": false,
      "inputs": [],
      "name": "startElection",
      "outputs": [],
      "payable": false,
      "stateMutability": "nonpayable",
      "type": "function"
    },
    {
      "constant": false,
      "inputs": [],
      "name": "endElection",
      "outputs": [],
      "payable": false,
      "stateMutability": "nonpayable",
      "type": "function"
    },
    {
      "constant": true,
      "inputs": [],
      "name": "getElectionStatus",
      "outputs": [
        {
          "internalType": "bool",
          "name": "started",
          "type": "bool"
        },
        {
          "internalType": "bool",
          "name": "ended",
          "type": "bool"
        },
        {
          "internalType": "uint256",
          "name": "start",
          "type": "uint256"
        },
        {
          "internalType": "uint256",
          "name": "end",
          "type": "uint256"
        }
      ],
      "payable": false,
      "stateMutability": "view",
      "type": "function"
    },
    {
      "constant": false,
      "inputs": [
        {
          "internalType": "string",
          "name": "_firstName",
          "type": "string"
        },
        {
          "internalType": "string",
          "name": "_lastName",
          "type": "string"
        },
        {
          "internalType": "string",
          "name": "_idNumber",
          "type": "string"
        },
        {
          "internalType": "string",
          "name": "_email",
          "type": "string"
        },
        {
          "internalType": "bytes32",
          "name": "_passwordHash",
          "type": "bytes32"
        }
      ],
      "name": "addUser",
      "outputs": [],
      "payable": false,
      "stateMutability": "nonpayable",
      "type": "function"
    },
    {
      "constant": true,
      "inputs": [],
      "name": "getWinner",
      "outputs": [
        {
          "internalType": "uint256[]",
          "name": "",
          "type": "uint256[]"
        }
      ],
      "payable": false,
      "stateMutability": "view",
      "type": "function"
    }
  ],
  "bytecode": "0x608060405234801561001057600080fd5b506040516121403803806121408339818101604052602081101561003357600080fd5b8101908080519060200190929190505050600073ffffffffffffffffffffffffffffffffffffffff168173ffffffffffffffffffffffffffffffffffffffff1614156100e7576040517f08c379a00000000000000000000000000000000000000000000000000000000081526004018080602001828103825260208152602001807f566f7465724175746820616464726573732063616e6e6f74206265207a65726f81525060200191505060405180910390fd5b336000806101000a81548173ffffffffffffffffffffffffffffffffffffffff021916908373ffffffffffffffffffffffffffffffffffffffff16021790555080600160006101000a81548173ffffffffffffffffffffffffffffffffffffffff021916908373ffffffffffffffffffffffffffffffffffffffff1602179055506000600160146101000a81548160ff0219169083151502179055506000600160156101000a81548160ff02191690831515021790555050611f92806101ae6000396000f3fe608060405234801561001057600080fd5b50600436106101165760003560e01c80636541e024116100a25780638e7ea5b2116100715780638e7ea5b2146108e0578063a3ec138d1461093f578063ad71f8dc1461099b578063c94ca9e314610b84578063d5346da114610ba657610116565b80636541e024146105d05780636ba13a821461085a57806371fed3e61461087857806378e97925146108c257610116565b80633477ee2e116100e95780633477ee2e146101c0578063365b98b21461034d578063481c6a751461057257806359f78468146105bc57806362d73eb8146105c657610116565b80630121b93f1461011b578063122902a6146101495780632d35a8a2146101845780633197cbb6146101a2575b600080fd5b6101476004803603602081101561013157600080fd5b8101908080359060200190929190505050610bc8565b005b610151610fa4565b60405180851515151581526020018415151515815260200183815260200182815260200194505050505060405180910390f35b61018c610fde565b6040518082815260200191505060405180910390f35b6101aa610fe4565b6040518082815260200191505060405180910390f35b6101ec600480360360208110156101d657600080fd5b8101908080359060200190929190505050610fea565b60405180868152602001806020018060200180602001858152602001848103845288818151815260200191508051906020019080838360005b83811015610240578082015181840152602081019050610225565b50505050905090810190601f16801561026d5780820380516001836020036101000a031916815260200191505b50848103835287818151815260200191508051906020019080838360005b838110156102a657808201518184015260208101905061028b565b50505050905090810190601f1680156102d35780820380516001836020036101000a031916815260200191505b50848103825286818151815260200191508051906020019080838360005b8381101561030c5780820151818401526020810190506102f1565b50505050905090810190601f1680156103395780820380516001836020036101000a031916815260200191505b509850505050505050505060405180910390f35b6103796004803603602081101561036357600080fd5b81019080803590602001909291905050506111e8565b60405180806020018060200180602001806020018781526020018673ffffffffffffffffffffffffffffffffffffffff1673ffffffffffffffffffffffffffffffffffffffff16815260200185810385528b818151815260200191508051906020019080838360005b838110156103fd5780820151818401526020810190506103e2565b50505050905090810190601f16801561042a5780820380516001836020036101000a031916815260200191505b5085810384528a818151815260200191508051906020019080838360005b83811015610463578082015181840152602081019050610448565b50505050905090810190601f1680156104905780820380516001836020036101000a031916815260200191505b50858103835289818151815260200191508051906020019080838360005b838110156104c95780820151818401526020810190506104ae565b50505050905090810190601f1680156104f65780820380516001836020036101000a031916815260200191505b50858103825288818151815260200191508051906020019080838360005b8381101561052f578082015181840152602081019050610514565b50505050905090810190601f16801561055c5780820380516001836020036101000a031916815260200191505b509a505050505050505050505060405180910390f35b61057a6114a4565b604051808273ffffffffffffffffffffffffffffffffffffffff1673ffffffffffffffffffffffffffffffffffffffff16815260200191505060405180910390f35b6105c46114c9565b005b6105ce611648565b005b610858600480360360a08110156105e657600080fd5b810190808035906020019064010000000081111561060357600080fd5b82018360208201111561061557600080fd5b8035906020019184600183028401116401000000008311171561063757600080fd5b91908080601f016020809104026020016040519081016040528093929190818152602001838380828437600081840152601f19601f8201169050808301925050505050505091929192908035906020019064010000000081111561069a57600080fd5b8201836020820111156106ac57600080fd5b803590602001918460018302840111640100000000831117156106ce57600080fd5b91908080601f016020809104026020016040519081016040528093929190818152602001838380828437600081840152601f19601f8201169050808301925050505050505091929192908035906020019064010000000081111561073157600080fd5b82018360208201111561074357600080fd5b8035906020019184600183028401116401000000008311171561076557600080fd5b91908080601f016020809104026020016040519081016040528093929190818152602001838380828437600081840152601f19601f820116905080830192505050505050509192919290803590602001906401000000008111156107c857600080fd5b8201836020820111156107da57600080fd5b803590602001918460018302840111640100000000831117156107fc57600080fd5b91908080601f016020809104026020016040519081016040528093929190818152602001838380828437600081840152601f19601f820116905080830192505050505050509192919290803590602001909291905050506117cc565b005b610862611905565b6040518082815260200191505060405180910390f35b61088061190b565b604051808273ffffffffffffffffffffffffffffffffffffffff1673ffffffffffffffffffffffffffffffffffffffff16815260200191505060405180910390f35b6108ca611931565b6040518082815260200191505060405180910390f35b6108e8611937565b6040518080602001828103825283818151815260200191508051906020019060200280838360005b8381101561092b578082015181840152602081019050610910565b505050509050019250505060405180910390f35b6109816004803603602081101561095557600080fd5b81019080803573ffffffffffffffffffffffffffffffffffffffff169060200190929190505050611b01565b604051808215151515815260200191505060405180910390f35b610b82600480360360608110156109b157600080fd5b81019080803590602001906401000000008111156109ce57600080fd5b8201836020820111156109e057600080fd5b80359060200191846001830284011164010000000083111715610a0257600080fd5b91908080601f016020809104026020016040519081016040528093929190818152602001838380828437600081840152601f19601f82011690508083019250505050505050919291929080359060200190640100000000811115610a6557600080fd5b820183602082011115610a7757600080fd5b80359060200191846001830284011164010000000083111715610a9957600080fd5b91908080601f016020809104026020016040519081016040528093929190818152602001838380828437600081840152601f19601f82011690508083019250505050505050919291929080359060200190640100000000811115610afc57600080fd5b820183602082011115610b0e57600080fd5b80359060200191846001830284011164010000000083111715610b3057600080fd5b91908080601f016020809104026020016040519081016040528093929190818152602001838380828437600081840152601f19601f820116905080830192505050505050509192919290505050611b21565b005b610b8c611e03565b604051808215151515815260200191505060405180910390f35b610bae611e16565b604051808215151515815260200191505060405180910390f35b600160149054906101000a900460ff168015610bf15750600160159054906101000a900460ff16155b610c63576040517f08c379a00000000000000000000000000000000000000000000000000000000081526004018080602001828103825260168152602001807f456c656374696f6e206973206e6f74206163746976650000000000000000000081525060200191505060405180910390fd5b600160009054906101000a900473ffffffffffffffffffffffffffffffffffffffff1673ffffffffffffffffffffffffffffffffffffffff166370bd8e93336040518263ffffffff1660e01b8152600401808273ffffffffffffffffffffffffffffffffffffffff1673ffffffffffffffffffffffffffffffffffffffff16815260200191505060206040518083038186803b158015610d0257600080fd5b505afa158015610d16573d6000803e3d6000fd5b505050506040513d6020811015610d2c57600080fd5b8101908080519060200190929190505050610daf576040517f08c379a000000000000000000000000000000000000000000000000000000000815260040180806020018281038252601d8152602001807f566f746572206973206e6f7420656c696769626c6520746f20766f746500000081525060200191505060405180910390fd5b600081118015610dc157506006548111155b610e33576040517f08c379a00000000000000000000000000000000000000000000000000000000081526004018080602001828103825260118152602001807f496e76616c69642063616e64696461746500000000000000000000000000000081525060200191505060405180910390fd5b6001600460003373ffffffffffffffffffffffffffffffffffffffff1673ffffffffffffffffffffffffffffffffffffffff16815260200190815260200160002060006101000a81548160ff021916908315150217905550600160009054906101000a900473ffffffffffffffffffffffffffffffffffffffff1673ffffffffffffffffffffffffffffffffffffffff1663a8fd0cfa336040518263ffffffff1660e01b8152600401808273ffffffffffffffffffffffffffffffffffffffff1673ffffffffffffffffffffffffffffffffffffffff168152602001915050600060405180830381600087803b158015610f2c57600080fd5b505af1158015610f40573d6000803e3d6000fd5b5050505060056000828152602001908152602001600020600401600081548092919060010191905055507ffff3c900d938d21d0990d786e819f29b8d05c1ef587b462b939609625b684b16816040518082815260200191505060405180910390a150565b600080600080600160149054906101000a900460ff16600160159054906101000a900460ff16600254600354935093509350935090919293565b60065481565b60035481565b6005602052806000526040600020600091509050806000015490806001018054600181600116156101000203166002900480601f01602080910402602001604051908101604052809291908181526020018280546001816001161561010002031660029004801561109c5780601f106110715761010080835404028352916020019161109c565b820191906000526020600020905b81548152906001019060200180831161107f57829003601f168201915b505050505090806002018054600181600116156101000203166002900480601f01602080910402602001604051908101604052809291908181526020018280546001816001161561010002031660029004801561113a5780601f1061110f5761010080835404028352916020019161113a565b820191906000526020600020905b81548152906001019060200180831161111d57829003601f168201915b505050505090806003018054600181600116156101000203166002900480601f0160208091040260200160405190810160405280929190818152602001828054600181600116156101000203166002900480156111d85780601f106111ad576101008083540402835291602001916111d8565b820191906000526020600020905b8154815290600101906020018083116111bb57829003601f168201915b5050505050908060040154905085565b6007602052806000526040600020600091509050806000018054600181600116156101000203166002900480601f0160208091040260200160405190810160405280929190818152602001828054600181600116156101000203166002900480156112945780601f1061126957610100808354040283529160200191611294565b820191906000526020600020905b81548152906001019060200180831161127757829003601f168201915b505050505090806001018054600181600116156101000203166002900480601f0160208091040260200160405190810160405280929190818152602001828054600181600116156101000203166002900480156113325780601f1061130757610100808354040283529160200191611332565b820191906000526020600020905b81548152906001019060200180831161131557829003601f168201915b505050505090806002018054600181600116156101000203166002900480601f0160208091040260200160405190810160405280929190818152602001828054600181600116156101000203166002900480156113d05780601f106113a5576101008083540402835291602001916113d0565b820191906000526020600020905b8154815290600101906020018083116113b357829003601f168201915b505050505090806003018054600181600116156101000203166002900480601f01602080910402602001604051908101604052809291908181526020018280546001816001161561010002031660029004801561146e5780601f106114435761010080835404028352916020019161146e565b820191906000526020600020905b81548152906001019060200180831161145157829003601f168201915b5050505050908060040154908060050160009054906101000a900473ffffffffffffffffffffffffffffffffffffffff16905086565b6000809054906101000a900473ffffffffffffffffffffffffffffffffffffffff1681565b6000809054906101000a900473ffffffffffffffffffffffffffffffffffffffff1673ffffffffffffffffffffffffffffffffffffffff163373ffffffffffffffffffffffffffffffffffffffff161461156e576040517f08c379a0000000000000000000000000000000000000000000000000000000008152600401808060200182810382526024815260200180611ecf6024913960400191505060405180910390fd5b600160149054906101000a900460ff1680156115975750600160159054906101000a900460ff16155b6115ec576040517f08c379a000000000000000000000000000000000000000000000000000000000815260040180806020018281038252603b815260200180611ef3603b913960400191505060405180910390fd5b60018060156101000a81548160ff021916908315150217905550426003819055507f562cd572b2ba3b666cd989fc4ca98419ec81e75f04528df9d9d76fdb7807ee716003546040518082815260200191505060405180910390a1565b6000809054906101000a900473ffffffffffffffffffffffffffffffffffffffff1673ffffffffffffffffffffffffffffffffffffffff163373ffffffffffffffffffffffffffffffffffffffff16146116ed576040517f08c379a0000000000000000000000000000000000000000000000000000000008152600401808060200182810382526024815260200180611ecf6024913960400191505060405180910390fd5b600160149054906101000a900460ff1615611770576040517f08c379a00000000000000000000000000000000000000000000000000000000081526004018080602001828103825260188152602001807f456c656374696f6e20616c72656164792073746172746564000000000000000081525060200191505060405180910390fd5b60018060146101000a81548160ff021916908315150217905550426002819055507f159eee87222a0489c529f2153c26ad65d718f2cc33ebaa8d399d1dd5b39facaa6002546040518082815260200191505060405180910390a1565b6008600081548092919060010191905055506040518060c001604052808681526020018581526020018481526020018381526020018281526020013373ffffffffffffffffffffffffffffffffffffffff168152506007600060085481526020019081526020016000206000820151816000019080519060200190611852929190611e29565b50602082015181600101908051906020019061186f929190611e29565b50604082015181600201908051906020019061188c929190611e29565b5060608201518160030190805190602001906118a9929190611e29565b506080820151816004015560a08201518160050160006101000a81548173ffffffffffffffffffffffffffffffffffffffff021916908373ffffffffffffffffffffffffffffffffffffffff1602179055509050505050505050565b60085481565b600160009054906101000a900473ffffffffffffffffffffffffffffffffffffffff1681565b60025481565b6060600160159054906101000a900460ff166119bb576040517f08c379a000000000000000000000000000000000000000000000000000000000815260040180806020018281038252601a8152602001807f456c656374696f6e20686173206e6f7420656e6465642079657400000000000081525060200191505060405180910390fd5b60008090506000600190505b6006548111611a15578160056000838152602001908152602001600020600401541115611a0857600560008281526020019081526020016000206004015491505b80806001019150506119c7565b5060008090506000600190505b6006548111611a5f578260056000838152602001908152602001600020600401541415611a525781806001019250505b8080600101915050611a22565b50606081604051908082528060200260200182016040528015611a915781602001602082028038833980820191505090505b50905060008090506000600190505b6006548111611af6578460056000838152602001908152602001600020600401541415611ae95780838381518110611ad457fe5b60200260200101818152505081806001019250505b8080600101915050611aa0565b508194505050505090565b60046020528060005260406000206000915054906101000a900460ff1681565b6000809054906101000a900473ffffffffffffffffffffffffffffffffffffffff1673ffffffffffffffffffffffffffffffffffffffff163373ffffffffffffffffffffffffffffffffffffffff1614611bc6576040517f08c379a0000000000000000000000000000000000000000000000000000000008152600401808060200182810382526024815260200180611ecf6024913960400191505060405180910390fd5b600160149054906101000a900460ff1615611c2c576040517f08c379a0000000000000000000000000000000000000000000000000000000008152600401808060200182810382526030815260200180611f2e6030913960400191505060405180910390fd5b6006600081548092919060010191905055506040518060a0016040528060065481526020018481526020018381526020018281526020016000815250600560006006548152602001908152602001600020600082015181600001556020820151816001019080519060200190611ca3929190611e29565b506040820151816002019080519060200190611cc0929190611e29565b506060820151816003019080519060200190611cdd929190611e29565b50608082015181600401559050507fe64f834082661dd9ed89427b87edb6270fd6dad17198b0938f0edd058914c87f6006548484604051808481526020018060200180602001838103835285818151815260200191508051906020019080838360005b83811015611d5b578082015181840152602081019050611d40565b50505050905090810190601f168015611d885780820380516001836020036101000a031916815260200191505b50838103825284818151815260200191508051906020019080838360005b83811015611dc1578082015181840152602081019050611da6565b50505050905090810190601f168015611dee5780820380516001836020036101000a031916815260200191505b509550505050505060405180910390a1505050565b600160159054906101000a900460ff1681565b600160149054906101000a900460ff1681565b828054600181600116156101000203166002900490600052602060002090601f016020900481019282601f10611e6a57805160ff1916838001178555611e98565b82800160010185558215611e98579182015b82811115611e97578251825591602001919060010190611e7c565b5b509050611ea59190611ea9565b5090565b611ecb91905b80821115611ec7576000816000905550600101611eaf565b5090565b9056fe4f6e6c79206d616e616765722063616e20706572666f726d207468697320616374696f6e43616e6e6f7420656e6420656c656374696f6e2074686174206861736e27742073746172746564206f7220697320616c726561647920656e64656443616e6e6f74206164642063616e6469646174657320616674657220656c656374696f6e206861732073746172746564a265627a7a723158207e21e4418690a5ff69514686b3ac208577741e5fbeaa8a74ae83e0ca1ccbc6a864736f6c63430005100032",
  "source": "pragma solidity ^0.5.0;\n\n// Import the VoterAuth contract\nimport \"./VoterAuth.sol\";\n\ncontract Election {\n\n    // Election manager\n    address public manager;\n    \n    // Reference to the VoterAuth contract\n    VoterAuth public voterAuth;\n    \n    // Election state\n    bool public electionStarted;\n    bool public electionEnded;\n    uint public startTime;\n    uint public endTime;\n\n    struct Candidate {\n        uint id;\n        string CfirstName;\n        string ClastName;\n        string CidNumber;\n        uint voteCount;\n    }\n\n    // Using voters mapping to track local record of who voted in this election\n    mapping (address => bool) public voters;\n    mapping (uint => Candidate) public candidates;\n    uint public candidatesCount;\n\n    event votedEvent (\n        uint indexed_candidateId\n    );\n    \n    event ElectionStarted(uint startTime);\n    event ElectionEnded(uint endTime);\n    event CandidateAdded(uint candidateId, string firstName, string lastName);\n\n    // Modified constructor to accept VoterAuth address\n    constructor(address _voterAuthAddress) public {\n        require(_voterAuthAddress != address(0), \"VoterAuth address cannot be zero\");\n        manager = msg.sender;\n        voterAuth = VoterAuth(_voterAuthAddress);\n        electionStarted = false;\n        electionEnded = false;\n    }\n\n    // Admin-only modifier\n    modifier restricted() {\n        require(msg.sender == manager, \"Only manager can perform this action\");\n        _;\n    }\n    \n    // Check if election is active\n    modifier electionActive() {\n        require(electionStarted && !electionEnded, \"Election is not active\");\n        _;\n    }\n\n    // Enhanced addCandidate function with event\n    function addCandidate(string memory _CfirstName, string memory _ClastName, string memory _CidNumber) \n        public \n        restricted \n    {\n        require(!electionStarted, \"Cannot add candidates after election has started\");\n        candidatesCount++;\n        candidates[candidatesCount] = Candidate(candidatesCount, _CfirstName, _ClastName, _CidNumber, 0);\n        emit CandidateAdded(candidatesCount, _CfirstName, _ClastName);\n    }\n\n    // Improved vote function with eligibility check\n    function vote(uint _candidateId) public electionActive {\n        // Check if voter is eligible through VoterAuth\n        require(voterAuth.isEligibleToVote(msg.sender), \"Voter is not eligible to vote\");\n        \n        // Check candidate validity\n        require(_candidateId > 0 && _candidateId <= candidatesCount, \"Invalid candidate\");\n        \n        // Track that voter has voted locally\n        voters[msg.sender] = true;\n        \n        // Mark voter as having voted in VoterAuth\n        voterAuth.markVoted(msg.sender);\n        \n        // Increment candidate vote count\n        candidates[_candidateId].voteCount++;\n        \n        // Emit vote event\n        emit votedEvent(_candidateId);\n    }\n    \n    // Start election function\n    function startElection() public restricted {\n        require(!electionStarted, \"Election already started\");\n        electionStarted = true;\n        startTime = now;\n        emit ElectionStarted(startTime);\n    }\n    \n    // End election function\n    function endElection() public restricted {\n        require(electionStarted && !electionEnded, \"Cannot end election that hasn't started or is already ended\");\n        electionEnded = true;\n        endTime = now;\n        emit ElectionEnded(endTime);\n    }\n    \n    // Get election status\n    function getElectionStatus() public view returns (bool started, bool ended, uint start, uint end) {\n        return (electionStarted, electionEnded, startTime, endTime);\n    }\n\n    struct User {\n        string firstName;\n        string lastName;\n        string idNumber;\n        string email;\n        bytes32 passwordHash; // Changed from string to bytes32 for hashed password\n        address add;\n    }\n\n    mapping (uint => User) public users;\n    uint public usersCount;\n\n    // Modified addUser function with password hashing\n    function addUser(\n        string memory _firstName, \n        string memory _lastName, \n        string memory _idNumber, \n        string memory _email, \n        bytes32 _passwordHash // Accept hashed password instead of plain text\n    ) \n        public \n    {\n        usersCount++;\n        users[usersCount] = User(_firstName, _lastName, _idNumber, _email, _passwordHash, msg.sender);\n    }\n    \n    // Function to get winner(s) after election ends\n    function getWinner() public view returns (uint[] memory) {\n        require(electionEnded, \"Election has not ended yet\");\n        \n        // Find the maximum vote count\n        uint maxVotes = 0;\n        for (uint i = 1; i <= candidatesCount; i++) {\n            if (candidates[i].voteCount > maxVotes) {\n                maxVotes = candidates[i].voteCount;\n            }\n        }\n        \n        // Count how many candidates have the maximum votes (in case of a tie)\n        uint winnerCount = 0;\n        for (uint i = 1; i <= candidatesCount; i++) {\n            if (candidates[i].voteCount == maxVotes) {\n                winnerCount++;\n            }\n        }\n        \n        // Create array of winners\n        uint[] memory winners = new uint[](winnerCount);\n        uint currentIndex = 0;\n        \n        for (uint i = 1; i <= candidatesCount; i++) {\n            if (candidates[i].voteCount == maxVotes) {\n                winners[currentIndex] = i;\n                currentIndex++;\n            }\n        }\n        \n        return winners;\n    }\n}",
  "sourcePath": "C:\\Users\\hp\\Desktop\\blockchain-voting-system\\contracts\\Election.sol",
  "compiler": {
    "name": "solc",
    "version": "0.5.16+commit.9c3226ce.Emscripten.clang"
  },
  "schemaVersion": "3.4.16",
  "updatedAt": "2025-03-23T05:19:54.013Z",
  "networkType": "ethereum",
  "devdoc": {
    "methods": {}
  },
  "userdoc": {
    "methods": {}
  }
}