{
  "contractName": "VoterAuth",
  "abi": [
    {
      "inputs": [
        {
          "internalType": "uint256",
          "name": "_initialFee",
          "type": "uint256"
        }
      ],
      "payable": false,
      "stateMutability": "nonpayable",
      "type": "constructor"
    },
    {
      "anonymous": false,
      "inputs": [
        {
          "indexed": true,
          "internalType": "address",
          "name": "electionContract",
          "type": "address"
        }
      ],
      "name": "ElectionAuthorized",
      "type": "event"
    },
    {
      "anonymous": false,
      "inputs": [
        {
          "indexed": false,
          "internalType": "uint256",
          "name": "amount",
          "type": "uint256"
        }
      ],
      "name": "FeesWithdrawn",
      "type": "event"
    },
    {
      "anonymous": false,
      "inputs": [
        {
          "indexed": false,
          "internalType": "uint256",
          "name": "newFee",
          "type": "uint256"
        }
      ],
      "name": "RegistrationFeeUpdated",
      "type": "event"
    },
    {
      "anonymous": false,
      "inputs": [
        {
          "indexed": true,
          "internalType": "address",
          "name": "voterAddress",
          "type": "address"
        }
      ],
      "name": "VoteCasted",
      "type": "event"
    },
    {
      "anonymous": false,
      "inputs": [
        {
          "indexed": true,
          "internalType": "address",
          "name": "voterAddress",
          "type": "address"
        },
        {
          "indexed": false,
          "internalType": "uint256",
          "name": "timestamp",
          "type": "uint256"
        }
      ],
      "name": "VoterRegistered",
      "type": "event"
    },
    {
      "anonymous": false,
      "inputs": [
        {
          "indexed": true,
          "internalType": "address",
          "name": "voterAddress",
          "type": "address"
        },
        {
          "indexed": false,
          "internalType": "bool",
          "name": "isRegistered",
          "type": "bool"
        }
      ],
      "name": "VoterStatusUpdated",
      "type": "event"
    },
    {
      "constant": true,
      "inputs": [],
      "name": "admin",
      "outputs": [
        {
          "internalType": "address",
          "name": "",
          "type": "address"
        }
      ],
      "payable": false,
      "stateMutability": "view",
      "type": "function"
    },
    {
      "constant": true,
      "inputs": [
        {
          "internalType": "address",
          "name": "",
          "type": "address"
        }
      ],
      "name": "authorizedElections",
      "outputs": [
        {
          "internalType": "bool",
          "name": "",
          "type": "bool"
        }
      ],
      "payable": false,
      "stateMutability": "view",
      "type": "function"
    },
    {
      "constant": true,
      "inputs": [],
      "name": "registrationFee",
      "outputs": [
        {
          "internalType": "uint256",
          "name": "",
          "type": "uint256"
        }
      ],
      "payable": false,
      "stateMutability": "view",
      "type": "function"
    },
    {
      "constant": true,
      "inputs": [],
      "name": "totalVoters",
      "outputs": [
        {
          "internalType": "uint256",
          "name": "",
          "type": "uint256"
        }
      ],
      "payable": false,
      "stateMutability": "view",
      "type": "function"
    },
    {
      "constant": true,
      "inputs": [
        {
          "internalType": "address",
          "name": "",
          "type": "address"
        }
      ],
      "name": "voters",
      "outputs": [
        {
          "internalType": "bytes32",
          "name": "idHash",
          "type": "bytes32"
        },
        {
          "internalType": "bytes32",
          "name": "digitalSignature",
          "type": "bytes32"
        },
        {
          "internalType": "bool",
          "name": "isRegistered",
          "type": "bool"
        },
        {
          "internalType": "bool",
          "name": "hasVoted",
          "type": "bool"
        },
        {
          "internalType": "uint256",
          "name": "registrationTime",
          "type": "uint256"
        }
      ],
      "payable": false,
      "stateMutability": "view",
      "type": "function"
    },
    {
      "constant": false,
      "inputs": [
        {
          "internalType": "address",
          "name": "_voterAddress",
          "type": "address"
        },
        {
          "internalType": "bytes32",
          "name": "_idHash",
          "type": "bytes32"
        },
        {
          "internalType": "bytes32",
          "name": "_digitalSignature",
          "type": "bytes32"
        }
      ],
      "name": "registerVoter",
      "outputs": [],
      "payable": true,
      "stateMutability": "payable",
      "type": "function"
    },
    {
      "constant": false,
      "inputs": [
        {
          "internalType": "address",
          "name": "_voterAddress",
          "type": "address"
        },
        {
          "internalType": "bool",
          "name": "_status",
          "type": "bool"
        }
      ],
      "name": "updateVoterStatus",
      "outputs": [],
      "payable": false,
      "stateMutability": "nonpayable",
      "type": "function"
    },
    {
      "constant": false,
      "inputs": [
        {
          "internalType": "address",
          "name": "_electionAddress",
          "type": "address"
        }
      ],
      "name": "authorizeElection",
      "outputs": [],
      "payable": false,
      "stateMutability": "nonpayable",
      "type": "function"
    },
    {
      "constant": true,
      "inputs": [
        {
          "internalType": "address",
          "name": "_voterAddress",
          "type": "address"
        }
      ],
      "name": "isEligibleToVote",
      "outputs": [
        {
          "internalType": "bool",
          "name": "",
          "type": "bool"
        }
      ],
      "payable": false,
      "stateMutability": "view",
      "type": "function"
    },
    {
      "constant": false,
      "inputs": [
        {
          "internalType": "address",
          "name": "_voterAddress",
          "type": "address"
        }
      ],
      "name": "markVoted",
      "outputs": [],
      "payable": false,
      "stateMutability": "nonpayable",
      "type": "function"
    },
    {
      "constant": true,
      "inputs": [
        {
          "internalType": "address",
          "name": "_voterAddress",
          "type": "address"
        },
        {
          "internalType": "bytes32",
          "name": "_idHash",
          "type": "bytes32"
        },
        {
          "internalType": "bytes32",
          "name": "_digitalSignature",
          "type": "bytes32"
        }
      ],
      "name": "verifyVoter",
      "outputs": [
        {
          "internalType": "bool",
          "name": "",
          "type": "bool"
        }
      ],
      "payable": false,
      "stateMutability": "view",
      "type": "function"
    },
    {
      "constant": false,
      "inputs": [
        {
          "internalType": "address",
          "name": "_newAdmin",
          "type": "address"
        }
      ],
      "name": "transferAdmin",
      "outputs": [],
      "payable": false,
      "stateMutability": "nonpayable",
      "type": "function"
    },
    {
      "constant": true,
      "inputs": [
        {
          "internalType": "address",
          "name": "_voterAddress",
          "type": "address"
        }
      ],
      "name": "getVoterRegistrationTime",
      "outputs": [
        {
          "internalType": "uint256",
          "name": "",
          "type": "uint256"
        }
      ],
      "payable": false,
      "stateMutability": "view",
      "type": "function"
    },
    {
      "constant": false,
      "inputs": [
        {
          "internalType": "uint256",
          "name": "_newFee",
          "type": "uint256"
        }
      ],
      "name": "updateRegistrationFee",
      "outputs": [],
      "payable": false,
      "stateMutability": "nonpayable",
      "type": "function"
    },
    {
      "constant": false,
      "inputs": [],
      "name": "withdrawFees",
      "outputs": [],
      "payable": false,
      "stateMutability": "nonpayable",
      "type": "function"
    }
  ],
  "bytecode": "0x608060405234801561001057600080fd5b506040516117bc3803806117bc8339818101604052602081101561003357600080fd5b8101908080519060200190929190505050336000806101000a81548173ffffffffffffffffffffffffffffffffffffffff021916908373ffffffffffffffffffffffffffffffffffffffff16021790555080600181905550506117218061009b6000396000f3fe6080604052600436106100e75760003560e01c80637c5bcdea1161008a578063a8fd0cfa11610059578063a8fd0cfa14610484578063af582c6b146104d5578063d0c9090914610510578063f851a44014610579576100e7565b80637c5bcdea146102c85780638e615fa5146103195780639f0dc9fa14610396578063a3ec138d146103fb576100e7565b80635f5300ff116100c65780635f5300ff1461018b5780636787bed0146101b657806370bd8e931461020e57806375829def14610277576100e7565b80626bc772146100ec57806314c44e0914610149578063476343ee14610174575b600080fd5b3480156100f857600080fd5b506101476004803603604081101561010f57600080fd5b81019080803573ffffffffffffffffffffffffffffffffffffffff1690602001909291908035151590602001909291905050506105d0565b005b34801561015557600080fd5b5061015e6107e0565b6040518082815260200191505060405180910390f35b34801561018057600080fd5b506101896107e6565b005b34801561019757600080fd5b506101a0610a3e565b6040518082815260200191505060405180910390f35b61020c600480360360608110156101cc57600080fd5b81019080803573ffffffffffffffffffffffffffffffffffffffff1690602001909291908035906020019092919080359060200190929190505050610a44565b005b34801561021a57600080fd5b5061025d6004803603602081101561023157600080fd5b81019080803573ffffffffffffffffffffffffffffffffffffffff169060200190929190505050610cb0565b604051808215151515815260200191505060405180910390f35b34801561028357600080fd5b506102c66004803603602081101561029a57600080fd5b81019080803573ffffffffffffffffffffffffffffffffffffffff169060200190929190505050610d62565b005b3480156102d457600080fd5b50610317600480360360208110156102eb57600080fd5b81019080803573ffffffffffffffffffffffffffffffffffffffff169060200190929190505050610eed565b005b34801561032557600080fd5b5061037c6004803603606081101561033c57600080fd5b81019080803573ffffffffffffffffffffffffffffffffffffffff1690602001909291908035906020019092919080359060200190929190505050611030565b604051808215151515815260200191505060405180910390f35b3480156103a257600080fd5b506103e5600480360360208110156103b957600080fd5b81019080803573ffffffffffffffffffffffffffffffffffffffff169060200190929190505050611107565b6040518082815260200191505060405180910390f35b34801561040757600080fd5b5061044a6004803603602081101561041e57600080fd5b81019080803573ffffffffffffffffffffffffffffffffffffffff169060200190929190505050611215565b6040518086815260200185815260200184151515158152602001831515151581526020018281526020019550505050505060405180910390f35b34801561049057600080fd5b506104d3600480360360208110156104a757600080fd5b81019080803573ffffffffffffffffffffffffffffffffffffffff169060200190929190505050611265565b005b3480156104e157600080fd5b5061050e600480360360208110156104f857600080fd5b810190808035906020019092919050505061152d565b005b34801561051c57600080fd5b5061055f6004803603602081101561053357600080fd5b81019080803573ffffffffffffffffffffffffffffffffffffffff169060200190929190505050611613565b604051808215151515815260200191505060405180910390f35b34801561058557600080fd5b5061058e611633565b604051808273ffffffffffffffffffffffffffffffffffffffff1673ffffffffffffffffffffffffffffffffffffffff16815260200191505060405180910390f35b6000809054906101000a900473ffffffffffffffffffffffffffffffffffffffff1673ffffffffffffffffffffffffffffffffffffffff163373ffffffffffffffffffffffffffffffffffffffff1614610675576040517f08c379a00000000000000000000000000000000000000000000000000000000081526004018080602001828103825260228152602001806116926022913960400191505060405180910390fd5b6000801b600260008473ffffffffffffffffffffffffffffffffffffffff1673ffffffffffffffffffffffffffffffffffffffff168152602001908152602001600020600001541415610730576040517f08c379a00000000000000000000000000000000000000000000000000000000081526004018080602001828103825260148152602001807f566f74657220646f6573206e6f7420657869737400000000000000000000000081525060200191505060405180910390fd5b80600260008473ffffffffffffffffffffffffffffffffffffffff1673ffffffffffffffffffffffffffffffffffffffff16815260200190815260200160002060020160006101000a81548160ff0219169083151502179055508173ffffffffffffffffffffffffffffffffffffffff167f930092ace8157b2101bc333d8c3951d9a4cf5cb98ec4890e25b6b5ae155f080b82604051808215151515815260200191505060405180910390a25050565b60015481565b6000809054906101000a900473ffffffffffffffffffffffffffffffffffffffff1673ffffffffffffffffffffffffffffffffffffffff163373ffffffffffffffffffffffffffffffffffffffff161461088b576040517f08c379a00000000000000000000000000000000000000000000000000000000081526004018080602001828103825260228152602001806116926022913960400191505060405180910390fd5b600047905060008111610906576040517f08c379a00000000000000000000000000000000000000000000000000000000081526004018080602001828103825260138152602001807f4e6f206665657320746f2077697468647261770000000000000000000000000081525060200191505060405180910390fd5b60008060009054906101000a900473ffffffffffffffffffffffffffffffffffffffff1673ffffffffffffffffffffffffffffffffffffffff168260405180600001905060006040518083038185875af1925050503d8060008114610987576040519150601f19603f3d011682016040523d82523d6000602084013e61098c565b606091505b5050905080610a03576040517f08c379a000000000000000000000000000000000000000000000000000000000815260040180806020018281038252600f8152602001807f5472616e73666572206661696c6564000000000000000000000000000000000081525060200191505060405180910390fd5b7f9800e6f57aeb4360eaa72295a820a4293e1e66fbfcabcd8874ae141304a76deb826040518082815260200191505060405180910390a15050565b60035481565b6001543414610abb576040517f08c379a000000000000000000000000000000000000000000000000000000000815260040180806020018281038252601a8152602001807f496e636f727265637420726567697374726174696f6e2066656500000000000081525060200191505060405180910390fd5b600260008473ffffffffffffffffffffffffffffffffffffffff1673ffffffffffffffffffffffffffffffffffffffff16815260200190815260200160002060020160009054906101000a900460ff1615610b7e576040517f08c379a00000000000000000000000000000000000000000000000000000000081526004018080602001828103825260188152602001807f566f74657220616c72656164792072656769737465726564000000000000000081525060200191505060405180910390fd5b6040518060a0016040528083815260200182815260200160011515815260200160001515815260200142815250600260008573ffffffffffffffffffffffffffffffffffffffff1673ffffffffffffffffffffffffffffffffffffffff168152602001908152602001600020600082015181600001556020820151816001015560408201518160020160006101000a81548160ff02191690831515021790555060608201518160020160016101000a81548160ff021916908315150217905550608082015181600301559050506003600081548092919060010191905055508273ffffffffffffffffffffffffffffffffffffffff167ff16ce2c2236e2c6e3df646f80d657bceef4cd7f3a240c47e82adfa17a5f47241426040518082815260200191505060405180910390a2505050565b6000600260008373ffffffffffffffffffffffffffffffffffffffff1673ffffffffffffffffffffffffffffffffffffffff16815260200190815260200160002060020160009054906101000a900460ff168015610d5b5750600260008373ffffffffffffffffffffffffffffffffffffffff1673ffffffffffffffffffffffffffffffffffffffff16815260200190815260200160002060020160019054906101000a900460ff16155b9050919050565b6000809054906101000a900473ffffffffffffffffffffffffffffffffffffffff1673ffffffffffffffffffffffffffffffffffffffff163373ffffffffffffffffffffffffffffffffffffffff1614610e07576040517f08c379a00000000000000000000000000000000000000000000000000000000081526004018080602001828103825260228152602001806116926022913960400191505060405180910390fd5b600073ffffffffffffffffffffffffffffffffffffffff168173ffffffffffffffffffffffffffffffffffffffff161415610eaa576040517f08c379a00000000000000000000000000000000000000000000000000000000081526004018080602001828103825260208152602001807f4e65772061646d696e2063616e6e6f74206265207a65726f206164647265737381525060200191505060405180910390fd5b806000806101000a81548173ffffffffffffffffffffffffffffffffffffffff021916908373ffffffffffffffffffffffffffffffffffffffff16021790555050565b6000809054906101000a900473ffffffffffffffffffffffffffffffffffffffff1673ffffffffffffffffffffffffffffffffffffffff163373ffffffffffffffffffffffffffffffffffffffff1614610f92576040517f08c379a00000000000000000000000000000000000000000000000000000000081526004018080602001828103825260228152602001806116926022913960400191505060405180910390fd5b6001600460008373ffffffffffffffffffffffffffffffffffffffff1673ffffffffffffffffffffffffffffffffffffffff16815260200190815260200160002060006101000a81548160ff0219169083151502179055508073ffffffffffffffffffffffffffffffffffffffff167f230ea4759cd0e6120c5fdd29bf695c2308f7226a561f2a9305b719f1079fedcf60405160405180910390a250565b600061103a611658565b600260008673ffffffffffffffffffffffffffffffffffffffff1673ffffffffffffffffffffffffffffffffffffffff1681526020019081526020016000206040518060a001604052908160008201548152602001600182015481526020016002820160009054906101000a900460ff161515151581526020016002820160019054906101000a900460ff161515151581526020016003820154815250509050806040015180156110ee5750838160000151145b80156110fd5750828160200151145b9150509392505050565b6000600260008373ffffffffffffffffffffffffffffffffffffffff1673ffffffffffffffffffffffffffffffffffffffff16815260200190815260200160002060020160009054906101000a900460ff166111cb576040517f08c379a00000000000000000000000000000000000000000000000000000000081526004018080602001828103825260178152602001807f566f746572206973206e6f74207265676973746572656400000000000000000081525060200191505060405180910390fd5b600260008373ffffffffffffffffffffffffffffffffffffffff1673ffffffffffffffffffffffffffffffffffffffff168152602001908152602001600020600301549050919050565b60026020528060005260406000206000915090508060000154908060010154908060020160009054906101000a900460ff16908060020160019054906101000a900460ff16908060030154905085565b600460003373ffffffffffffffffffffffffffffffffffffffff1673ffffffffffffffffffffffffffffffffffffffff16815260200190815260200160002060009054906101000a900460ff16611307576040517f08c379a00000000000000000000000000000000000000000000000000000000081526004018080602001828103825260398152602001806116b46039913960400191505060405180910390fd5b600260008273ffffffffffffffffffffffffffffffffffffffff1673ffffffffffffffffffffffffffffffffffffffff16815260200190815260200160002060020160009054906101000a900460ff166113c9576040517f08c379a00000000000000000000000000000000000000000000000000000000081526004018080602001828103825260178152602001807f566f746572206973206e6f74207265676973746572656400000000000000000081525060200191505060405180910390fd5b600260008273ffffffffffffffffffffffffffffffffffffffff1673ffffffffffffffffffffffffffffffffffffffff16815260200190815260200160002060020160019054906101000a900460ff161561148c576040517f08c379a00000000000000000000000000000000000000000000000000000000081526004018080602001828103825260178152602001807f566f7465722068617320616c726561647920766f74656400000000000000000081525060200191505060405180910390fd5b6001600260008373ffffffffffffffffffffffffffffffffffffffff1673ffffffffffffffffffffffffffffffffffffffff16815260200190815260200160002060020160016101000a81548160ff0219169083151502179055508073ffffffffffffffffffffffffffffffffffffffff167f7ce969a18bb6b0fba42c6d9746e7d08eeca4c661809659c91d276456e3153ac060405160405180910390a250565b6000809054906101000a900473ffffffffffffffffffffffffffffffffffffffff1673ffffffffffffffffffffffffffffffffffffffff163373ffffffffffffffffffffffffffffffffffffffff16146115d2576040517f08c379a00000000000000000000000000000000000000000000000000000000081526004018080602001828103825260228152602001806116926022913960400191505060405180910390fd5b806001819055507fb120d26fad0e7bd128060711a484693f1283b8143bf94bde9df9b13217aa4836816040518082815260200191505060405180910390a150565b60046020528060005260406000206000915054906101000a900460ff1681565b6000809054906101000a900473ffffffffffffffffffffffffffffffffffffffff1681565b6040518060a00160405280600080191681526020016000801916815260200160001515815260200160001515815260200160008152509056fe4f6e6c792061646d696e2063616e20706572666f726d207468697320616374696f6e4f6e6c7920617574686f72697a656420656c656374696f6e20636f6e7472616374732063616e2063616c6c20746869732066756e6374696f6ea265627a7a723158207aa742e00842abf1738ebd75aefece7b90a3c6ca5622f0b583ac75ab4ccc629764736f6c63430005100032",
  "source": "pragma solidity ^0.5.0;\n\n/**\n * @title VoterAuth\n * @dev Handles voter registration and verification with enhanced security\n */\ncontract VoterAuth {\n    address public admin;\n    uint256 public registrationFee;\n    \n    struct Voter {\n        bytes32 idHash;           // Hash of government ID (first layer)\n        bytes32 digitalSignature; // Second layer of verification\n        bool isRegistered;        // Registration status\n        bool hasVoted;            // Voting status\n        uint registrationTime;    // When the voter was registered\n    }\n    \n    // Mapping from voter's address to their data\n    mapping(address => Voter) public voters;\n    \n    // Total number of registered voters\n    uint public totalVoters;\n    \n    // Whitelisted election contracts that can check voter status\n    mapping(address => bool) public authorizedElections;\n    \n    // Events\n    event VoterRegistered(address indexed voterAddress, uint timestamp);\n    event VoterStatusUpdated(address indexed voterAddress, bool isRegistered);\n    event ElectionAuthorized(address indexed electionContract);\n    event VoteCasted(address indexed voterAddress);\n    event RegistrationFeeUpdated(uint256 newFee);\n    event FeesWithdrawn(uint256 amount);\n    \n    // Modifiers\n    modifier onlyAdmin() {\n        require(msg.sender == admin, \"Only admin can perform this action\");\n        _;\n    }\n    \n    modifier onlyAuthorizedElection() {\n        require(authorizedElections[msg.sender], \"Only authorized election contracts can call this function\");\n        _;\n    }\n    \n    /**\n     * @dev Constructor sets the admin and initial registration fee\n     * @param _initialFee Initial registration fee in wei\n     */\n    constructor(uint256 _initialFee) public {\n        admin = msg.sender;\n        registrationFee = _initialFee;\n    }\n    \n    /**\n     * @dev Register a new voter with double hashing for privacy and security\n     * @param _voterAddress Address of the voter\n     * @param _idHash Hash of the government ID\n     * @param _digitalSignature Second layer of security verification\n     */\n    function registerVoter(address _voterAddress, bytes32 _idHash, bytes32 _digitalSignature) \n        public \n        payable\n    {\n        require(msg.value == registrationFee, \"Incorrect registration fee\");\n        require(!voters[_voterAddress].isRegistered, \"Voter already registered\");\n        \n        voters[_voterAddress] = Voter({\n            idHash: _idHash,\n            digitalSignature: _digitalSignature,\n            isRegistered: true,\n            hasVoted: false,\n            registrationTime: now\n        });\n        \n        totalVoters++;\n        \n        emit VoterRegistered(_voterAddress, now);\n    }\n    \n    /**\n     * @dev Update a voter's registration status\n     * @param _voterAddress Address of the voter\n     * @param _status New registration status\n     */\n    function updateVoterStatus(address _voterAddress, bool _status) \n        public \n        onlyAdmin \n    {\n        require(voters[_voterAddress].idHash != bytes32(0), \"Voter does not exist\");\n        \n        voters[_voterAddress].isRegistered = _status;\n        \n        emit VoterStatusUpdated(_voterAddress, _status);\n    }\n    \n    /**\n     * @dev Authorize an election contract to check voter status\n     * @param _electionAddress Address of the election contract\n     */\n    function authorizeElection(address _electionAddress) \n        public \n        onlyAdmin \n    {\n        authorizedElections[_electionAddress] = true;\n        \n        emit ElectionAuthorized(_electionAddress);\n    }\n    \n    /**\n     * @dev Check if a voter is registered and has not voted\n     * @param _voterAddress Address of the voter to check\n     * @return bool indicating if voter is eligible to vote\n     */\n    function isEligibleToVote(address _voterAddress) \n        public \n        view \n        returns (bool) \n    {\n        return voters[_voterAddress].isRegistered && !voters[_voterAddress].hasVoted;\n    }\n    \n    /**\n     * @dev Mark a voter as having voted (can only be called by authorized election)\n     * @param _voterAddress Address of the voter\n     */\n    function markVoted(address _voterAddress) \n        public \n        onlyAuthorizedElection \n    {\n        require(voters[_voterAddress].isRegistered, \"Voter is not registered\");\n        require(!voters[_voterAddress].hasVoted, \"Voter has already voted\");\n        \n        voters[_voterAddress].hasVoted = true;\n        \n        emit VoteCasted(_voterAddress);\n    }\n    \n    /**\n     * @dev Verify a voter's identity using both hash layers\n     * @param _voterAddress Address of the voter\n     * @param _idHash Hash of the government ID for verification\n     * @param _digitalSignature Second layer for verification\n     * @return bool indicating if verification was successful\n     */\n    function verifyVoter(\n        address _voterAddress, \n        bytes32 _idHash, \n        bytes32 _digitalSignature\n    ) \n        public \n        view \n        returns (bool) \n    {\n        Voter memory voter = voters[_voterAddress];\n        return (voter.isRegistered && \n                voter.idHash == _idHash && \n                voter.digitalSignature == _digitalSignature);\n    }\n    \n    /**\n     * @dev Emergency function to transfer admin rights\n     * @param _newAdmin Address of the new admin\n     */\n    function transferAdmin(address _newAdmin) \n        public \n        onlyAdmin \n    {\n        require(_newAdmin != address(0), \"New admin cannot be zero address\");\n        admin = _newAdmin;\n    }\n    \n    /**\n     * @dev Get voter registration time\n     * @param _voterAddress Address of the voter\n     * @return uint timestamp of registration\n     */\n    function getVoterRegistrationTime(address _voterAddress) \n        public \n        view \n        returns (uint) \n    {\n        require(voters[_voterAddress].isRegistered, \"Voter is not registered\");\n        return voters[_voterAddress].registrationTime;\n    }\n    \n    /**\n     * @dev Update registration fee\n     * @param _newFee New registration fee in wei\n     */\n    function updateRegistrationFee(uint256 _newFee) \n        public \n        onlyAdmin \n    {\n        registrationFee = _newFee;\n        emit RegistrationFeeUpdated(_newFee);\n    }\n    \n    /**\n     * @dev Withdraw collected fees to admin address\n     */\n    function withdrawFees() \n        public \n        onlyAdmin \n    {\n        uint256 balance = address(this).balance;\n        require(balance > 0, \"No fees to withdraw\");\n        \n        (bool success, ) = admin.call.value(balance)(\"\");\n        require(success, \"Transfer failed\");\n        \n        emit FeesWithdrawn(balance);\n    }\n}\n",
  "sourcePath": "C:\\Users\\hp\\Desktop\\blockchain-voting-system\\contracts\\VoterAuth.sol",
  "compiler": {
    "name": "solc",
    "version": "0.5.16+commit.9c3226ce.Emscripten.clang"
  },
  "schemaVersion": "3.4.16",
  "updatedAt": "2025-03-23T05:19:54.034Z",
  "networkType": "ethereum",
  "devdoc": {
    "details": "Handles voter registration and verification with enhanced security",
    "methods": {
      "authorizeElection(address)": {
        "details": "Authorize an election contract to check voter status",
        "params": {
          "_electionAddress": "Address of the election contract"
        }
      },
      "constructor": {
        "details": "Constructor sets the admin and initial registration fee",
        "params": {
          "_initialFee": "Initial registration fee in wei"
        }
      },
      "getVoterRegistrationTime(address)": {
        "details": "Get voter registration time",
        "params": {
          "_voterAddress": "Address of the voter"
        },
        "return": "uint timestamp of registration"
      },
      "isEligibleToVote(address)": {
        "details": "Check if a voter is registered and has not voted",
        "params": {
          "_voterAddress": "Address of the voter to check"
        },
        "return": "bool indicating if voter is eligible to vote"
      },
      "markVoted(address)": {
        "details": "Mark a voter as having voted (can only be called by authorized election)",
        "params": {
          "_voterAddress": "Address of the voter"
        }
      },
      "registerVoter(address,bytes32,bytes32)": {
        "details": "Register a new voter with double hashing for privacy and security",
        "params": {
          "_digitalSignature": "Second layer of security verification",
          "_idHash": "Hash of the government ID",
          "_voterAddress": "Address of the voter"
        }
      },
      "transferAdmin(address)": {
        "details": "Emergency function to transfer admin rights",
        "params": {
          "_newAdmin": "Address of the new admin"
        }
      },
      "updateRegistrationFee(uint256)": {
        "details": "Update registration fee",
        "params": {
          "_newFee": "New registration fee in wei"
        }
      },
      "updateVoterStatus(address,bool)": {
        "details": "Update a voter's registration status",
        "params": {
          "_status": "New registration status",
          "_voterAddress": "Address of the voter"
        }
      },
      "verifyVoter(address,bytes32,bytes32)": {
        "details": "Verify a voter's identity using both hash layers",
        "params": {
          "_digitalSignature": "Second layer for verification",
          "_idHash": "Hash of the government ID for verification",
          "_voterAddress": "Address of the voter"
        },
        "return": "bool indicating if verification was successful"
      },
      "withdrawFees()": {
        "details": "Withdraw collected fees to admin address"
      }
    },
    "title": "VoterAuth"
  },
  "userdoc": {
    "methods": {}
  }
}